{
  "_format": "hh-sol-artifact-1",
  "contractName": "Vault",
  "sourceName": "contracts/Vault.sol",
  "abi": [
    {
      "inputs": [
        {
          "internalType": "address",
          "name": "_token",
          "type": "address"
        },
        {
          "internalType": "address",
          "name": "_membership",
          "type": "address"
        }
      ],
      "stateMutability": "nonpayable",
      "type": "constructor"
    },
    {
      "anonymous": false,
      "inputs": [
        {
          "indexed": true,
          "internalType": "address",
          "name": "owner",
          "type": "address"
        },
        {
          "indexed": true,
          "internalType": "address",
          "name": "spender",
          "type": "address"
        },
        {
          "indexed": false,
          "internalType": "uint256",
          "name": "value",
          "type": "uint256"
        }
      ],
      "name": "Approval",
      "type": "event"
    },
    {
      "anonymous": false,
      "inputs": [
        {
          "indexed": true,
          "internalType": "address",
          "name": "from",
          "type": "address"
        },
        {
          "indexed": true,
          "internalType": "address",
          "name": "to",
          "type": "address"
        },
        {
          "indexed": false,
          "internalType": "uint256",
          "name": "value",
          "type": "uint256"
        }
      ],
      "name": "Transfer",
      "type": "event"
    },
    {
      "inputs": [],
      "name": "admin",
      "outputs": [
        {
          "internalType": "address",
          "name": "",
          "type": "address"
        }
      ],
      "stateMutability": "view",
      "type": "function"
    },
    {
      "inputs": [
        {
          "internalType": "address",
          "name": "owner",
          "type": "address"
        },
        {
          "internalType": "address",
          "name": "spender",
          "type": "address"
        }
      ],
      "name": "allowance",
      "outputs": [
        {
          "internalType": "uint256",
          "name": "",
          "type": "uint256"
        }
      ],
      "stateMutability": "view",
      "type": "function"
    },
    {
      "inputs": [
        {
          "internalType": "address",
          "name": "spender",
          "type": "address"
        },
        {
          "internalType": "uint256",
          "name": "amount",
          "type": "uint256"
        }
      ],
      "name": "approve",
      "outputs": [
        {
          "internalType": "bool",
          "name": "",
          "type": "bool"
        }
      ],
      "stateMutability": "nonpayable",
      "type": "function"
    },
    {
      "inputs": [
        {
          "internalType": "address",
          "name": "account",
          "type": "address"
        }
      ],
      "name": "balanceOf",
      "outputs": [
        {
          "internalType": "uint256",
          "name": "",
          "type": "uint256"
        }
      ],
      "stateMutability": "view",
      "type": "function"
    },
    {
      "inputs": [],
      "name": "collateralToken",
      "outputs": [
        {
          "internalType": "contract IERC20",
          "name": "",
          "type": "address"
        }
      ],
      "stateMutability": "view",
      "type": "function"
    },
    {
      "inputs": [],
      "name": "decimals",
      "outputs": [
        {
          "internalType": "uint8",
          "name": "",
          "type": "uint8"
        }
      ],
      "stateMutability": "view",
      "type": "function"
    },
    {
      "inputs": [
        {
          "internalType": "address",
          "name": "spender",
          "type": "address"
        },
        {
          "internalType": "uint256",
          "name": "subtractedValue",
          "type": "uint256"
        }
      ],
      "name": "decreaseAllowance",
      "outputs": [
        {
          "internalType": "bool",
          "name": "",
          "type": "bool"
        }
      ],
      "stateMutability": "nonpayable",
      "type": "function"
    },
    {
      "inputs": [
        {
          "internalType": "uint256",
          "name": "assets",
          "type": "uint256"
        }
      ],
      "name": "deposit",
      "outputs": [],
      "stateMutability": "nonpayable",
      "type": "function"
    },
    {
      "inputs": [
        {
          "internalType": "address",
          "name": "spender",
          "type": "address"
        },
        {
          "internalType": "uint256",
          "name": "addedValue",
          "type": "uint256"
        }
      ],
      "name": "increaseAllowance",
      "outputs": [
        {
          "internalType": "bool",
          "name": "",
          "type": "bool"
        }
      ],
      "stateMutability": "nonpayable",
      "type": "function"
    },
    {
      "inputs": [],
      "name": "membership",
      "outputs": [
        {
          "internalType": "contract MembershipNFT",
          "name": "",
          "type": "address"
        }
      ],
      "stateMutability": "view",
      "type": "function"
    },
    {
      "inputs": [],
      "name": "name",
      "outputs": [
        {
          "internalType": "string",
          "name": "",
          "type": "string"
        }
      ],
      "stateMutability": "view",
      "type": "function"
    },
    {
      "inputs": [],
      "name": "symbol",
      "outputs": [
        {
          "internalType": "string",
          "name": "",
          "type": "string"
        }
      ],
      "stateMutability": "view",
      "type": "function"
    },
    {
      "inputs": [],
      "name": "totalAssets",
      "outputs": [
        {
          "internalType": "uint256",
          "name": "",
          "type": "uint256"
        }
      ],
      "stateMutability": "view",
      "type": "function"
    },
    {
      "inputs": [],
      "name": "totalSupply",
      "outputs": [
        {
          "internalType": "uint256",
          "name": "",
          "type": "uint256"
        }
      ],
      "stateMutability": "view",
      "type": "function"
    },
    {
      "inputs": [
        {
          "internalType": "address",
          "name": "to",
          "type": "address"
        },
        {
          "internalType": "uint256",
          "name": "amount",
          "type": "uint256"
        }
      ],
      "name": "transfer",
      "outputs": [
        {
          "internalType": "bool",
          "name": "",
          "type": "bool"
        }
      ],
      "stateMutability": "nonpayable",
      "type": "function"
    },
    {
      "inputs": [
        {
          "internalType": "address",
          "name": "from",
          "type": "address"
        },
        {
          "internalType": "address",
          "name": "to",
          "type": "address"
        },
        {
          "internalType": "uint256",
          "name": "amount",
          "type": "uint256"
        }
      ],
      "name": "transferFrom",
      "outputs": [
        {
          "internalType": "bool",
          "name": "",
          "type": "bool"
        }
      ],
      "stateMutability": "nonpayable",
      "type": "function"
    },
    {
      "inputs": [
        {
          "internalType": "uint256",
          "name": "shares",
          "type": "uint256"
        }
      ],
      "name": "withdraw",
      "outputs": [],
      "stateMutability": "nonpayable",
      "type": "function"
    },
    {
      "inputs": [],
      "name": "withdrawalFeeBps",
      "outputs": [
        {
          "internalType": "uint256",
          "name": "",
          "type": "uint256"
        }
      ],
      "stateMutability": "view",
      "type": "function"
    }
  ],
  "bytecode": "0x608060405260326008553480156200001657600080fd5b506040516200271f3803806200271f83398181016040528101906200003c919062000203565b6040518060400160405280600b81526020017f5661756c742053686172650000000000000000000000000000000000000000008152506040518060400160405280600681526020017f56534841524500000000000000000000000000000000000000000000000000008152508160039081620000b99190620004c4565b508060049081620000cb9190620004c4565b50505081600560006101000a81548173ffffffffffffffffffffffffffffffffffffffff021916908373ffffffffffffffffffffffffffffffffffffffff16021790555080600660006101000a81548173ffffffffffffffffffffffffffffffffffffffff021916908373ffffffffffffffffffffffffffffffffffffffff16021790555033600760006101000a81548173ffffffffffffffffffffffffffffffffffffffff021916908373ffffffffffffffffffffffffffffffffffffffff1602179055505050620005ab565b600080fd5b600073ffffffffffffffffffffffffffffffffffffffff82169050919050565b6000620001cb826200019e565b9050919050565b620001dd81620001be565b8114620001e957600080fd5b50565b600081519050620001fd81620001d2565b92915050565b600080604083850312156200021d576200021c62000199565b5b60006200022d85828601620001ec565b92505060206200024085828601620001ec565b9150509250929050565b600081519050919050565b7f4e487b7100000000000000000000000000000000000000000000000000000000600052604160045260246000fd5b7f4e487b7100000000000000000000000000000000000000000000000000000000600052602260045260246000fd5b60006002820490506001821680620002cc57607f821691505b602082108103620002e257620002e162000284565b5b50919050565b60008190508160005260206000209050919050565b60006020601f8301049050919050565b600082821b905092915050565b6000600883026200034c7fffffffffffffffffffffffffffffffffffffffffffffffffffffffffffffffff826200030d565b6200035886836200030d565b95508019841693508086168417925050509392505050565b6000819050919050565b6000819050919050565b6000620003a56200039f620003998462000370565b6200037a565b62000370565b9050919050565b6000819050919050565b620003c18362000384565b620003d9620003d082620003ac565b8484546200031a565b825550505050565b600090565b620003f0620003e1565b620003fd818484620003b6565b505050565b5b81811015620004255762000419600082620003e6565b60018101905062000403565b5050565b601f82111562000474576200043e81620002e8565b6200044984620002fd565b8101602085101562000459578190505b620004716200046885620002fd565b83018262000402565b50505b505050565b600082821c905092915050565b6000620004996000198460080262000479565b1980831691505092915050565b6000620004b4838362000486565b9150826002028217905092915050565b620004cf826200024a565b67ffffffffffffffff811115620004eb57620004ea62000255565b5b620004f78254620002b3565b6200050482828562000429565b600060209050601f8311600181146200053c576000841562000527578287015190505b620005338582620004a6565b865550620005a3565b601f1984166200054c86620002e8565b60005b8281101562000576578489015182556001820191506020850194506020810190506200054f565b8683101562000596578489015162000592601f89168262000486565b8355505b6001600288020188555050505b505050505050565b61216480620005bb6000396000f3fe608060405234801561001057600080fd5b50600436106101165760003560e01c806370a08231116100a2578063a9059cbb11610071578063a9059cbb146102f9578063b2016bd414610329578063b6b55f2514610347578063dd62ed3e14610363578063f851a4401461039357610116565b806370a082311461025d57806395d89b411461028d578063a2bf68b9146102ab578063a457c2d7146102c957610116565b806318160ddd116100e957806318160ddd146101a557806323b872dd146101c35780632e1a7d4d146101f3578063313ce5671461020f578063395093511461022d57610116565b806301e1d1141461011b57806304336bb31461013957806306fdde0314610157578063095ea7b314610175575b600080fd5b6101236103b1565b6040516101309190611484565b60405180910390f35b610141610454565b60405161014e9190611484565b60405180910390f35b61015f61045a565b60405161016c919061152f565b60405180910390f35b61018f600480360381019061018a91906115e0565b6104ec565b60405161019c919061163b565b60405180910390f35b6101ad61050f565b6040516101ba9190611484565b60405180910390f35b6101dd60048036038101906101d89190611656565b610519565b6040516101ea919061163b565b60405180910390f35b61020d600480360381019061020891906116a9565b610548565b005b6102176107fd565b60405161022491906116f2565b60405180910390f35b610247600480360381019061024291906115e0565b610806565b604051610254919061163b565b60405180910390f35b6102776004803603810190610272919061170d565b61083d565b6040516102849190611484565b60405180910390f35b610295610885565b6040516102a2919061152f565b60405180910390f35b6102b3610917565b6040516102c09190611799565b60405180910390f35b6102e360048036038101906102de91906115e0565b61093d565b6040516102f0919061163b565b60405180910390f35b610313600480360381019061030e91906115e0565b6109b4565b604051610320919061163b565b60405180910390f35b6103316109d7565b60405161033e91906117d5565b60405180910390f35b610361600480360381019061035c91906116a9565b6109fd565b005b61037d600480360381019061037891906117f0565b610bbe565b60405161038a9190611484565b60405180910390f35b61039b610c45565b6040516103a8919061183f565b60405180910390f35b6000600560009054906101000a900473ffffffffffffffffffffffffffffffffffffffff1673ffffffffffffffffffffffffffffffffffffffff166370a08231306040518263ffffffff1660e01b815260040161040e919061183f565b602060405180830381865afa15801561042b573d6000803e3d6000fd5b505050506040513d601f19601f8201168201806040525081019061044f919061186f565b905090565b60085481565b606060038054610469906118cb565b80601f0160208091040260200160405190810160405280929190818152602001828054610495906118cb565b80156104e25780601f106104b7576101008083540402835291602001916104e2565b820191906000526020600020905b8154815290600101906020018083116104c557829003601f168201915b5050505050905090565b6000806104f7610c6b565b9050610504818585610c73565b600191505092915050565b6000600254905090565b600080610524610c6b565b9050610531858285610e3c565b61053c858585610ec8565b60019150509392505050565b806105523361083d565b1015610593576040517f08c379a000000000000000000000000000000000000000000000000000000000815260040161058a90611948565b60405180910390fd5b600061059d61050f565b6105a56103b1565b836105b09190611997565b6105ba9190611a08565b90506000612710600854836105cf9190611997565b6105d99190611a08565b9050600081836105e99190611a39565b90506105f5338561113e565b600560009054906101000a900473ffffffffffffffffffffffffffffffffffffffff1673ffffffffffffffffffffffffffffffffffffffff1663a9059cbb600760009054906101000a900473ffffffffffffffffffffffffffffffffffffffff16846040518363ffffffff1660e01b8152600401610674929190611a6d565b6020604051808303816000875af1158015610693573d6000803e3d6000fd5b505050506040513d601f19601f820116820180604052508101906106b79190611ac2565b50600560009054906101000a900473ffffffffffffffffffffffffffffffffffffffff1673ffffffffffffffffffffffffffffffffffffffff1663a9059cbb33836040518363ffffffff1660e01b8152600401610715929190611a6d565b6020604051808303816000875af1158015610734573d6000803e3d6000fd5b505050506040513d601f19601f820116820180604052508101906107589190611ac2565b5060006107643361083d565b036107f757600660009054906101000a900473ffffffffffffffffffffffffffffffffffffffff1673ffffffffffffffffffffffffffffffffffffffff166389afcb44336040518263ffffffff1660e01b81526004016107c4919061183f565b600060405180830381600087803b1580156107de57600080fd5b505af11580156107f2573d6000803e3d6000fd5b505050505b50505050565b60006012905090565b600080610811610c6b565b90506108328185856108238589610bbe565b61082d9190611aef565b610c73565b600191505092915050565b60008060008373ffffffffffffffffffffffffffffffffffffffff1673ffffffffffffffffffffffffffffffffffffffff168152602001908152602001600020549050919050565b606060048054610894906118cb565b80601f01602080910402602001604051908101604052809291908181526020018280546108c0906118cb565b801561090d5780601f106108e25761010080835404028352916020019161090d565b820191906000526020600020905b8154815290600101906020018083116108f057829003601f168201915b5050505050905090565b600660009054906101000a900473ffffffffffffffffffffffffffffffffffffffff1681565b600080610948610c6b565b905060006109568286610bbe565b90508381101561099b576040517f08c379a000000000000000000000000000000000000000000000000000000000815260040161099290611b95565b60405180910390fd5b6109a88286868403610c73565b60019250505092915050565b6000806109bf610c6b565b90506109cc818585610ec8565b600191505092915050565b600560009054906101000a900473ffffffffffffffffffffffffffffffffffffffff1681565b60008111610a40576040517f08c379a0000000000000000000000000000000000000000000000000000000008152600401610a3790611c01565b60405180910390fd5b600080610a4b61050f565b03610a5857819050610a80565b610a606103b1565b610a6861050f565b83610a739190611997565b610a7d9190611a08565b90505b600560009054906101000a900473ffffffffffffffffffffffffffffffffffffffff1673ffffffffffffffffffffffffffffffffffffffff166323b872dd3330856040518463ffffffff1660e01b8152600401610adf93929190611c21565b6020604051808303816000875af1158015610afe573d6000803e3d6000fd5b505050506040513d601f19601f82011682018060405250810190610b229190611ac2565b50610b2d338261130b565b600660009054906101000a900473ffffffffffffffffffffffffffffffffffffffff1673ffffffffffffffffffffffffffffffffffffffff16636a627842336040518263ffffffff1660e01b8152600401610b88919061183f565b600060405180830381600087803b158015610ba257600080fd5b505af1158015610bb6573d6000803e3d6000fd5b505050505050565b6000600160008473ffffffffffffffffffffffffffffffffffffffff1673ffffffffffffffffffffffffffffffffffffffff16815260200190815260200160002060008373ffffffffffffffffffffffffffffffffffffffff1673ffffffffffffffffffffffffffffffffffffffff16815260200190815260200160002054905092915050565b600760009054906101000a900473ffffffffffffffffffffffffffffffffffffffff1681565b600033905090565b600073ffffffffffffffffffffffffffffffffffffffff168373ffffffffffffffffffffffffffffffffffffffff1603610ce2576040517f08c379a0000000000000000000000000000000000000000000000000000000008152600401610cd990611cca565b60405180910390fd5b600073ffffffffffffffffffffffffffffffffffffffff168273ffffffffffffffffffffffffffffffffffffffff1603610d51576040517f08c379a0000000000000000000000000000000000000000000000000000000008152600401610d4890611d5c565b60405180910390fd5b80600160008573ffffffffffffffffffffffffffffffffffffffff1673ffffffffffffffffffffffffffffffffffffffff16815260200190815260200160002060008473ffffffffffffffffffffffffffffffffffffffff1673ffffffffffffffffffffffffffffffffffffffff168152602001908152602001600020819055508173ffffffffffffffffffffffffffffffffffffffff168373ffffffffffffffffffffffffffffffffffffffff167f8c5be1e5ebec7d5bd14f71427d1e84f3dd0314c0f7b2291e5b200ac8c7c3b92583604051610e2f9190611484565b60405180910390a3505050565b6000610e488484610bbe565b90507fffffffffffffffffffffffffffffffffffffffffffffffffffffffffffffffff8114610ec25781811015610eb4576040517f08c379a0000000000000000000000000000000000000000000000000000000008152600401610eab90611dc8565b60405180910390fd5b610ec18484848403610c73565b5b50505050565b600073ffffffffffffffffffffffffffffffffffffffff168373ffffffffffffffffffffffffffffffffffffffff1603610f37576040517f08c379a0000000000000000000000000000000000000000000000000000000008152600401610f2e90611e5a565b60405180910390fd5b600073ffffffffffffffffffffffffffffffffffffffff168273ffffffffffffffffffffffffffffffffffffffff1603610fa6576040517f08c379a0000000000000000000000000000000000000000000000000000000008152600401610f9d90611eec565b60405180910390fd5b610fb1838383611461565b60008060008573ffffffffffffffffffffffffffffffffffffffff1673ffffffffffffffffffffffffffffffffffffffff16815260200190815260200160002054905081811015611037576040517f08c379a000000000000000000000000000000000000000000000000000000000815260040161102e90611f7e565b60405180910390fd5b8181036000808673ffffffffffffffffffffffffffffffffffffffff1673ffffffffffffffffffffffffffffffffffffffff16815260200190815260200160002081905550816000808573ffffffffffffffffffffffffffffffffffffffff1673ffffffffffffffffffffffffffffffffffffffff168152602001908152602001600020600082825401925050819055508273ffffffffffffffffffffffffffffffffffffffff168473ffffffffffffffffffffffffffffffffffffffff167fddf252ad1be2c89b69c2b068fc378daa952ba7f163c4a11628f55a4df523b3ef846040516111259190611484565b60405180910390a3611138848484611466565b50505050565b600073ffffffffffffffffffffffffffffffffffffffff168273ffffffffffffffffffffffffffffffffffffffff16036111ad576040517f08c379a00000000000000000000000000000000000000000000000000000000081526004016111a490612010565b60405180910390fd5b6111b982600083611461565b60008060008473ffffffffffffffffffffffffffffffffffffffff1673ffffffffffffffffffffffffffffffffffffffff1681526020019081526020016000205490508181101561123f576040517f08c379a0000000000000000000000000000000000000000000000000000000008152600401611236906120a2565b60405180910390fd5b8181036000808573ffffffffffffffffffffffffffffffffffffffff1673ffffffffffffffffffffffffffffffffffffffff1681526020019081526020016000208190555081600260008282540392505081905550600073ffffffffffffffffffffffffffffffffffffffff168373ffffffffffffffffffffffffffffffffffffffff167fddf252ad1be2c89b69c2b068fc378daa952ba7f163c4a11628f55a4df523b3ef846040516112f29190611484565b60405180910390a361130683600084611466565b505050565b600073ffffffffffffffffffffffffffffffffffffffff168273ffffffffffffffffffffffffffffffffffffffff160361137a576040517f08c379a00000000000000000000000000000000000000000000000000000000081526004016113719061210e565b60405180910390fd5b61138660008383611461565b80600260008282546113989190611aef565b92505081905550806000808473ffffffffffffffffffffffffffffffffffffffff1673ffffffffffffffffffffffffffffffffffffffff168152602001908152602001600020600082825401925050819055508173ffffffffffffffffffffffffffffffffffffffff16600073ffffffffffffffffffffffffffffffffffffffff167fddf252ad1be2c89b69c2b068fc378daa952ba7f163c4a11628f55a4df523b3ef836040516114499190611484565b60405180910390a361145d60008383611466565b5050565b505050565b505050565b6000819050919050565b61147e8161146b565b82525050565b60006020820190506114996000830184611475565b92915050565b600081519050919050565b600082825260208201905092915050565b60005b838110156114d95780820151818401526020810190506114be565b60008484015250505050565b6000601f19601f8301169050919050565b60006115018261149f565b61150b81856114aa565b935061151b8185602086016114bb565b611524816114e5565b840191505092915050565b6000602082019050818103600083015261154981846114f6565b905092915050565b600080fd5b600073ffffffffffffffffffffffffffffffffffffffff82169050919050565b600061158182611556565b9050919050565b61159181611576565b811461159c57600080fd5b50565b6000813590506115ae81611588565b92915050565b6115bd8161146b565b81146115c857600080fd5b50565b6000813590506115da816115b4565b92915050565b600080604083850312156115f7576115f6611551565b5b60006116058582860161159f565b9250506020611616858286016115cb565b9150509250929050565b60008115159050919050565b61163581611620565b82525050565b6000602082019050611650600083018461162c565b92915050565b60008060006060848603121561166f5761166e611551565b5b600061167d8682870161159f565b935050602061168e8682870161159f565b925050604061169f868287016115cb565b9150509250925092565b6000602082840312156116bf576116be611551565b5b60006116cd848285016115cb565b91505092915050565b600060ff82169050919050565b6116ec816116d6565b82525050565b600060208201905061170760008301846116e3565b92915050565b60006020828403121561172357611722611551565b5b60006117318482850161159f565b91505092915050565b6000819050919050565b600061175f61175a61175584611556565b61173a565b611556565b9050919050565b600061177182611744565b9050919050565b600061178382611766565b9050919050565b61179381611778565b82525050565b60006020820190506117ae600083018461178a565b92915050565b60006117bf82611766565b9050919050565b6117cf816117b4565b82525050565b60006020820190506117ea60008301846117c6565b92915050565b6000806040838503121561180757611806611551565b5b60006118158582860161159f565b92505060206118268582860161159f565b9150509250929050565b61183981611576565b82525050565b60006020820190506118546000830184611830565b92915050565b600081519050611869816115b4565b92915050565b60006020828403121561188557611884611551565b5b60006118938482850161185a565b91505092915050565b7f4e487b7100000000000000000000000000000000000000000000000000000000600052602260045260246000fd5b600060028204905060018216806118e357607f821691505b6020821081036118f6576118f561189c565b5b50919050565b7f4e6f7420656e6f75676800000000000000000000000000000000000000000000600082015250565b6000611932600a836114aa565b915061193d826118fc565b602082019050919050565b6000602082019050818103600083015261196181611925565b9050919050565b7f4e487b7100000000000000000000000000000000000000000000000000000000600052601160045260246000fd5b60006119a28261146b565b91506119ad8361146b565b92508282026119bb8161146b565b915082820484148315176119d2576119d1611968565b5b5092915050565b7f4e487b7100000000000000000000000000000000000000000000000000000000600052601260045260246000fd5b6000611a138261146b565b9150611a1e8361146b565b925082611a2e57611a2d6119d9565b5b828204905092915050565b6000611a448261146b565b9150611a4f8361146b565b9250828203905081811115611a6757611a66611968565b5b92915050565b6000604082019050611a826000830185611830565b611a8f6020830184611475565b9392505050565b611a9f81611620565b8114611aaa57600080fd5b50565b600081519050611abc81611a96565b92915050565b600060208284031215611ad857611ad7611551565b5b6000611ae684828501611aad565b91505092915050565b6000611afa8261146b565b9150611b058361146b565b9250828201905080821115611b1d57611b1c611968565b5b92915050565b7f45524332303a2064656372656173656420616c6c6f77616e63652062656c6f7760008201527f207a65726f000000000000000000000000000000000000000000000000000000602082015250565b6000611b7f6025836114aa565b9150611b8a82611b23565b604082019050919050565b60006020820190508181036000830152611bae81611b72565b9050919050565b7f496e76616c696400000000000000000000000000000000000000000000000000600082015250565b6000611beb6007836114aa565b9150611bf682611bb5565b602082019050919050565b60006020820190508181036000830152611c1a81611bde565b9050919050565b6000606082019050611c366000830186611830565b611c436020830185611830565b611c506040830184611475565b949350505050565b7f45524332303a20617070726f76652066726f6d20746865207a65726f2061646460008201527f7265737300000000000000000000000000000000000000000000000000000000602082015250565b6000611cb46024836114aa565b9150611cbf82611c58565b604082019050919050565b60006020820190508181036000830152611ce381611ca7565b9050919050565b7f45524332303a20617070726f766520746f20746865207a65726f20616464726560008201527f7373000000000000000000000000000000000000000000000000000000000000602082015250565b6000611d466022836114aa565b9150611d5182611cea565b604082019050919050565b60006020820190508181036000830152611d7581611d39565b9050919050565b7f45524332303a20696e73756666696369656e7420616c6c6f77616e6365000000600082015250565b6000611db2601d836114aa565b9150611dbd82611d7c565b602082019050919050565b60006020820190508181036000830152611de181611da5565b9050919050565b7f45524332303a207472616e736665722066726f6d20746865207a65726f20616460008201527f6472657373000000000000000000000000000000000000000000000000000000602082015250565b6000611e446025836114aa565b9150611e4f82611de8565b604082019050919050565b60006020820190508181036000830152611e7381611e37565b9050919050565b7f45524332303a207472616e7366657220746f20746865207a65726f206164647260008201527f6573730000000000000000000000000000000000000000000000000000000000602082015250565b6000611ed66023836114aa565b9150611ee182611e7a565b604082019050919050565b60006020820190508181036000830152611f0581611ec9565b9050919050565b7f45524332303a207472616e7366657220616d6f756e742065786365656473206260008201527f616c616e63650000000000000000000000000000000000000000000000000000602082015250565b6000611f686026836114aa565b9150611f7382611f0c565b604082019050919050565b60006020820190508181036000830152611f9781611f5b565b9050919050565b7f45524332303a206275726e2066726f6d20746865207a65726f2061646472657360008201527f7300000000000000000000000000000000000000000000000000000000000000602082015250565b6000611ffa6021836114aa565b915061200582611f9e565b604082019050919050565b6000602082019050818103600083015261202981611fed565b9050919050565b7f45524332303a206275726e20616d6f756e7420657863656564732062616c616e60008201527f6365000000000000000000000000000000000000000000000000000000000000602082015250565b600061208c6022836114aa565b915061209782612030565b604082019050919050565b600060208201905081810360008301526120bb8161207f565b9050919050565b7f45524332303a206d696e7420746f20746865207a65726f206164647265737300600082015250565b60006120f8601f836114aa565b9150612103826120c2565b602082019050919050565b60006020820190508181036000830152612127816120eb565b905091905056fea26469706673582212203a3100360421d108d455dff9a78aeddaa469f1b86196e1aad37caba67cce3ed264736f6c63430008140033",
  "linkReferences": {},
  "deployedLinkReferences": {}
}